{
  "address": "0x8054978aaA9e14e7f6c13d274e22BeC2699a7cFc",
  "abi": [
    {
      "inputs": [
        {
          "internalType": "address",
          "name": "tokenAddress",
          "type": "address"
        }
      ],
      "stateMutability": "nonpayable",
      "type": "constructor"
    },
    {
      "anonymous": false,
      "inputs": [
        {
          "indexed": false,
          "internalType": "address",
          "name": "buyer",
          "type": "address"
        },
        {
          "indexed": false,
          "internalType": "uint256",
          "name": "amountOfETH",
          "type": "uint256"
        },
        {
          "indexed": false,
          "internalType": "uint256",
          "name": "amountOfTokens",
          "type": "uint256"
        }
      ],
      "name": "BuyTokens",
      "type": "event"
    },
    {
      "anonymous": false,
      "inputs": [
        {
          "indexed": true,
          "internalType": "address",
          "name": "previousOwner",
          "type": "address"
        },
        {
          "indexed": true,
          "internalType": "address",
          "name": "newOwner",
          "type": "address"
        }
      ],
      "name": "OwnershipTransferred",
      "type": "event"
    },
    {
      "anonymous": false,
      "inputs": [
        {
          "indexed": false,
          "internalType": "address",
          "name": "seller",
          "type": "address"
        },
        {
          "indexed": false,
          "internalType": "uint256",
          "name": "amountOfTokens",
          "type": "uint256"
        },
        {
          "indexed": false,
          "internalType": "uint256",
          "name": "amountOfETH",
          "type": "uint256"
        }
      ],
      "name": "SellTokens",
      "type": "event"
    },
    {
      "inputs": [
        {
          "internalType": "address",
          "name": "",
          "type": "address"
        }
      ],
      "name": "balances",
      "outputs": [
        {
          "internalType": "uint256",
          "name": "",
          "type": "uint256"
        }
      ],
      "stateMutability": "view",
      "type": "function"
    },
    {
      "inputs": [],
      "name": "buyTokens",
      "outputs": [],
      "stateMutability": "payable",
      "type": "function"
    },
    {
      "inputs": [],
      "name": "currentBalance",
      "outputs": [
        {
          "internalType": "uint256",
          "name": "",
          "type": "uint256"
        }
      ],
      "stateMutability": "view",
      "type": "function"
    },
    {
      "inputs": [],
      "name": "owner",
      "outputs": [
        {
          "internalType": "address",
          "name": "",
          "type": "address"
        }
      ],
      "stateMutability": "view",
      "type": "function"
    },
    {
      "inputs": [],
      "name": "renounceOwnership",
      "outputs": [],
      "stateMutability": "nonpayable",
      "type": "function"
    },
    {
      "inputs": [
        {
          "internalType": "uint256",
          "name": "_amount",
          "type": "uint256"
        }
      ],
      "name": "sellTokens",
      "outputs": [],
      "stateMutability": "nonpayable",
      "type": "function"
    },
    {
      "inputs": [],
      "name": "tokensPerEth",
      "outputs": [
        {
          "internalType": "uint256",
          "name": "",
          "type": "uint256"
        }
      ],
      "stateMutability": "view",
      "type": "function"
    },
    {
      "inputs": [
        {
          "internalType": "address",
          "name": "newOwner",
          "type": "address"
        }
      ],
      "name": "transferOwnership",
      "outputs": [],
      "stateMutability": "nonpayable",
      "type": "function"
    },
    {
      "inputs": [],
      "name": "withdraw",
      "outputs": [],
      "stateMutability": "nonpayable",
      "type": "function"
    },
    {
      "inputs": [],
      "name": "yourToken",
      "outputs": [
        {
          "internalType": "contract YourToken",
          "name": "",
          "type": "address"
        }
      ],
      "stateMutability": "view",
      "type": "function"
    }
  ],
  "transactionHash": "0xd8ce13e6746ca1631d69905c36c136de264d0d3996f4d9c13c16c97b4777a522",
  "args": [
    "0x538cdB4191CA1B3C4C605c93F54Fc949aEBfb29d"
  ],
  "numDeployments": 1,
  "solcInputHash": "26616eb908c9ba6c409aac716131ae84",
  "bytecode": "0x608060405234801561001057600080fd5b50604051610b5c380380610b5c83398101604081905261002f9161011b565b610038336100cb565b600180546001600160a01b0319166001600160a01b0383169081179091556040516370a0823160e01b81523060048201526370a082319060240160206040518083038186803b15801561008a57600080fd5b505afa15801561009e573d6000803e3d6000fd5b505050506040513d601f19601f820116820180604052508101906100c29190610149565b60025550610161565b600080546001600160a01b038381166001600160a01b0319831681178455604051919092169283917f8be0079c531659141344cd1fd0a4f28419497f9722a3daafe3b4186f6b6457e09190a35050565b60006020828403121561012c578081fd5b81516001600160a01b0381168114610142578182fd5b9392505050565b60006020828403121561015a578081fd5b5051919050565b6109ec806101706000396000f3fe6080604052600436106100915760003560e01c80638da5cb5b116100595780638da5cb5b1461015a578063cbdd69b514610178578063ce845d1d1461018d578063d0febe4c146101a3578063f2fde38b146101ab57600080fd5b806327e235e3146100965780633ccfd60b146100d65780636c11bcd3146100ed578063715018a61461010d5780637879e84b14610122575b600080fd5b3480156100a257600080fd5b506100c36100b1366004610869565b60036020526000908152604090205481565b6040519081526020015b60405180910390f35b3480156100e257600080fd5b506100eb6101cb565b005b3480156100f957600080fd5b506100eb6101083660046108b7565b61027f565b34801561011957600080fd5b506100eb610555565b34801561012e57600080fd5b50600154610142906001600160a01b031681565b6040516001600160a01b0390911681526020016100cd565b34801561016657600080fd5b506000546001600160a01b0316610142565b34801561018457600080fd5b506100c3606481565b34801561019957600080fd5b506100c360025481565b6100eb610569565b3480156101b757600080fd5b506100eb6101c6366004610869565b6106d5565b33600081815260036020526040808220805490839055905190929083908381818185875af1925050503d8060008114610220576040519150601f19603f3d011682016040523d82523d6000602084013e610225565b606091505b505090508061027b5760405162461bcd60e51b815260206004820152601860248201527f4661696c656420746f2077697468647261772066756e6473000000000000000060448201526064015b60405180910390fd5b5050565b600081116102cf5760405162461bcd60e51b815260206004820152601a60248201527f4d7573742073656c6c206174206c65617374203120746f6b656e0000000000006044820152606401610272565b6001546040516370a0823160e01b815233600482015282916001600160a01b0316906370a082319060240160206040518083038186803b15801561031257600080fd5b505afa158015610326573d6000803e3d6000fd5b505050506040513d601f19601f8201168201806040525081019061034a91906108cf565b10156103985760405162461bcd60e51b815260206004820152601a60248201527f496e73756666696369656e7420746f6b656e2062616c616e63650000000000006044820152606401610272565b60006103a5606483610961565b9050804710156103f75760405162461bcd60e51b815260206004820152601c60248201527f4e6f7420656e6f7567682045544820696e207468652076656e646f72000000006044820152606401610272565b6001546040516323b872dd60e01b8152336004820152306024820152604481018490526001600160a01b03909116906323b872dd90606401602060405180830381600087803b15801561044957600080fd5b505af115801561045d573d6000803e3d6000fd5b505050506040513d601f19601f820116820180604052508101906104819190610897565b50604051600090339083908381818185875af1925050503d80600081146104c4576040519150601f19603f3d011682016040523d82523d6000602084013e6104c9565b606091505b505090508061050f5760405162461bcd60e51b815260206004820152601260248201527108cc2d2d8cac840e8de40e6cadcc8408aa8960731b6044820152606401610272565b60408051338152602081018590529081018390527fa24838acd4af5195a2396965dae5abf54e84e8c19f5698bb966ae64e29994ee59060600160405180910390a1505050565b61055d61074e565b61056760006107a8565b565b600034116105b25760405162461bcd60e51b815260206004820152601660248201527553656e642045544820746f2062757920746f6b656e7360501b6044820152606401610272565b60006105bf606434610981565b90506105e960405180604001604052806005815260200164646562756760d81b81525034836107f8565b3360009081526003602052604081208054839290610608908490610949565b909155505060015460405163a9059cbb60e01b8152336004820152602481018390526001600160a01b039091169063a9059cbb90604401602060405180830381600087803b15801561065957600080fd5b505af115801561066d573d6000803e3d6000fd5b505050506040513d601f19601f820116820180604052508101906106919190610897565b50604080513381523460208201529081018290527f0a37b72bb67eee30e09084cf386f8a17817c57f620c3ab95fb25d6a20356ec779060600160405180910390a150565b6106dd61074e565b6001600160a01b0381166107425760405162461bcd60e51b815260206004820152602660248201527f4f776e61626c653a206e6577206f776e657220697320746865207a65726f206160448201526564647265737360d01b6064820152608401610272565b61074b816107a8565b50565b6000546001600160a01b031633146105675760405162461bcd60e51b815260206004820181905260248201527f4f776e61626c653a2063616c6c6572206973206e6f7420746865206f776e65726044820152606401610272565b600080546001600160a01b038381166001600160a01b0319831681178455604051919092169283917f8be0079c531659141344cd1fd0a4f28419497f9722a3daafe3b4186f6b6457e09190a35050565b61083f838383604051602401610810939291906108e7565b60408051601f198184030181529190526020810180516001600160e01b031663ca47c4eb60e01b179052610844565b505050565b61074b8160006a636f6e736f6c652e6c6f679050600080835160208501845afa505050565b60006020828403121561087a578081fd5b81356001600160a01b0381168114610890578182fd5b9392505050565b6000602082840312156108a8578081fd5b81518015158114610890578182fd5b6000602082840312156108c8578081fd5b5035919050565b6000602082840312156108e0578081fd5b5051919050565b6060815260008451806060840152815b8181101561091457602081880181015160808684010152016108f7565b818111156109255782608083860101525b5060208301949094525060408101919091526080601f909201601f19160101919050565b6000821982111561095c5761095c6109a0565b500190565b60008261097c57634e487b7160e01b81526012600452602481fd5b500490565b600081600019048311821515161561099b5761099b6109a0565b500290565b634e487b7160e01b600052601160045260246000fdfea2646970667358221220121af044b2a6819e25f581d46e87a242a3b4924761139eb67f64304ec15b028c64736f6c63430008040033",
  "devdoc": {
    "kind": "dev",
    "methods": {
      "owner()": {
        "details": "Returns the address of the current owner."
      },
      "renounceOwnership()": {
        "details": "Leaves the contract without owner. It will not be possible to call `onlyOwner` functions anymore. Can only be called by the current owner. NOTE: Renouncing ownership will leave the contract without an owner, thereby removing any functionality that is only available to the owner."
      },
      "transferOwnership(address)": {
        "details": "Transfers ownership of the contract to a new account (`newOwner`). Can only be called by the current owner."
      }
    },
    "version": 1
  },
  "userdoc": {
    "kind": "user",
    "methods": {},
    "version": 1
  },
  "storageLayout": {
    "storage": [
      {
        "astId": 7,
        "contract": "contracts/Vendor.sol:Vendor",
        "label": "_owner",
        "offset": 0,
        "slot": "0",
        "type": "t_address"
      },
      {
        "astId": 853,
        "contract": "contracts/Vendor.sol:Vendor",
        "label": "yourToken",
        "offset": 0,
        "slot": "1",
        "type": "t_contract(YourToken)1065"
      },
      {
        "astId": 855,
        "contract": "contracts/Vendor.sol:Vendor",
        "label": "currentBalance",
        "offset": 0,
        "slot": "2",
        "type": "t_uint256"
      },
      {
        "astId": 859,
        "contract": "contracts/Vendor.sol:Vendor",
        "label": "balances",
        "offset": 0,
        "slot": "3",
        "type": "t_mapping(t_address,t_uint256)"
      }
    ],
    "types": {
      "t_address": {
        "encoding": "inplace",
        "label": "address",
        "numberOfBytes": "20"
      },
      "t_contract(YourToken)1065": {
        "encoding": "inplace",
        "label": "contract YourToken",
        "numberOfBytes": "20"
      },
      "t_mapping(t_address,t_uint256)": {
        "encoding": "mapping",
        "key": "t_address",
        "label": "mapping(address => uint256)",
        "numberOfBytes": "32",
        "value": "t_uint256"
      },
      "t_uint256": {
        "encoding": "inplace",
        "label": "uint256",
        "numberOfBytes": "32"
      }
    }
  }
}